S0150000547261666669635F6C696768742E73726563D9
S11300000C9402010C941F010C941F010C941F0109
S11300100C941F010C941F010C941F010C941F01DC
S11300200C941F010C941F010C94C1030C941F0128
S11300300C941F010C941F010C941F010C941F01BC
S11300400C941F010C941F010C941F010C941F01AC
S11300500C941F012D0146015F017801900190016C
S11300609001900190019001900190019001900104
S113007090019001900190019001900190019001F4
S113008090019001900190019001900190019001E4
S1130090900190012D0146015F0178019D01B60197
S11300A0CF01E80100020002000200020002000287
S11300B0000200020002000200020002000200022C
S11300C0000200020002000200020002000200021C
S11300D00002000200020002000200029D01B601BB
S11300E0CF01E8010C020E021002120213021302E5
S11300F01302130213021302130213021302130254
S11301001302130213021302130213021302130243
S11301101302130213021302130213021302130233
S1130120130213020C020E02100212021F02210219
S1130130230225022602260226022602260226027F
S1130140260226022602260226022602260226026B
S1130150260226022602260226022602260226025B
S11301602602260226022602260226021F02210257
S11301702302250233023A02410248024E024E0291
S11301804E024E024E024E024E024E024E024E02EB
S11301904E024E024E024E024E024E024E024E02DB
S11301A04E024E024E024E024E024E024E024E02CB
S11301B04E024E0233023A02410248025C026302DA
S11301C06A02710277027702770277027702770276
S11301D07702770277027702770277027702770253
S11301E07702770277027702770277027702770243
S11301F07702770277027702770277025C02630262
S11302006A02710211241FBECFE5D8E0DEBFCDBF64
S113021010E0A0E6B0E0E8E4F8E002C005900D923A
S1130220A438B107D9F720E0A4E8B0E001C01D92DA
S1130230A538B207E1F70E941C030C9422040C9425
S1130240000090E0FC01E154F109E432F10508F00A
S113025067C0E65DFF4F0C941C04413059F42AB387
S113026081E090E002C0880F991F6A95E2F7822B23
S11302708ABB08952AB381E090E002C0880F991FD9
S11302806A95E2F7809582238ABB0895413059F438
S113029027B381E090E002C0880F991F6A95E2F7C6
S11302A0822B87BB089527B381E090E002C0880FBA
S11302B0991F6A95E2F78095822387BB08954130A0
S11302C059F424B381E090E002C0880F991F6A9525
S11302D0E2F7822B84BB089524B381E090E002C04E
S11302E0880F991F6A95E2F78095822384BB08954D
S11302F0413059F421B381E090E002C0880F991F86
S11303006A95E2F7822B81BB089521B381E090E0E6
S113031002C0880F991F6A95E2F78095822381BBFA
S1130320089590E0FC01E154F109E432F10508F08C
S113033067C0E25BFF4F0C941C04413059F42BB3AB
S113034081E090E002C0880F991F6A95E2F7822B42
S11303508BBB08952BB381E090E002C0880F991FF6
S11303606A95E2F7809582238BBB0895413059F456
S113037028B381E090E002C0880F991F6A95E2F7E4
S1130380822B88BB089528B381E090E002C0880FD7
S1130390991F6A95E2F78095822388BB08954130BE
S11303A059F425B381E090E002C0880F991F6A9543
S11303B0E2F7822B85BB089525B381E090E002C06B
S11303C0880F991F6A95E2F78095822385BB08956B
S11303D0413059F422B381E090E002C0880F991FA4
S11303E06A95E2F7822B82BB089522B381E090E004
S11303F002C0880F991F6A95E2F78095822382BB19
S1130400089590E0FC01E154F109E432F10558F457
S1130410EE58FF4F0C941C046ABB089567BB089503
S113042064BB089561BB089590E0FC01E154F109B7
S1130430E432F10558F4EA56FF4F0C941C046BBBEC
S1130440089568BB089565BB089562BB08956F70F5
S113045090E0FC01E154F109E432F105F8F4E654CA
S1130460FF4F0C941C048BB3807F8BBB8BB3682B26
S11304706BBB089588B3807F88BB88B3682B68BB47
S1130480089585B3807F85BB85B3682B65BB0895CC
S113049082B3807F82BB82B3682B62BB089562956E
S11304A0607F90E0FC01E154F109E432F105F8F4D5
S11304B0E252FF4F0C941C048BB38F708BBB8BB335
S11304C0682B6BBB089588B38F7088BB88B3682B87
S11304D068BB089585B38F7085BB85B3682B65BBF6
S11304E0089582B38F7082BB82B3682B62BB089578
S11304F041E062E082E40E9491018FE99FE001976C
S1130500F1F700C0000040E062E082E40E94910143
S11305108FE99FE00197F1F700C000000895CF93A1
S1130520C82F40E060E082E40E9491016C2F81E4D6
S11305300E9414020E9478028FEC97E00197F1F771
S113054000C00000CF9108952FEF81EE94E0215078
S113055080409040E1F700C000006FEF81E40E940A
S1130560010241E062E082E40E94210141E061E095
S113057082E40E94210141E060E082E40E942101C2
S113058040E061E082E40E94910188E30E948F02CE
S11305908FEC97E00197F1F700C0000081E00E9422
S11305A08F028FE19EE40197F1F700C000008CE018
S11305B00E948F028FEC97E00197F1F700C00000D2
S11305C086E00E948F028FEC97E00197F1F700C05C
S11305D000000895CF93C82F41E060E082E40E94B8
S11305E091016C2F81E40E9414020E947802CF9141
S11305F00895CF93DF93EC0103C00E94EA02219691
S113060088818111FACFDF91CF91089581E00E9412
S11306108F028FE19EE40197F1F700C00000089576
S113062041E00E942101089541E00E949101089552
S113063040E00E94910108950E94A4020E94D20306
S11306400E94E7030E94060460E083E40E94100312
S113065061E083E40E94100362E083E40E941003DB
S113066060E083E40E9414030E94060380E690E0A5
S11306700E94F902CEE11AC0809184008436B0F061
S113068010928400C150DDECCD9FD12D1124D6955C
S1130690D695D6958D2F0E94FC03DD0F8D2F880FE4
S11306A0880FD80F8C2F8D1B0E940104C111E4CF39
S11306B08FE19EE40197F1F700C0000060E083E45D
S11306C00E94180361E083E40E9414030E9406035D
S11306D08EE690E00E94F902C5E01AC08091840081
S11306E08436B0F010928400C150DDECCD9FD12D42
S11306F01124D695D695D6958D2F0E94FC03DD0F37
S11307008D2F880F880FD80F8C2F8D1B0E9401040A
S1130710C111E4CF61E083E40E94180362E083E442
S11307200E9414030E94060389E790E00E94F902E4
S11307308FE19EE40197F1F700C00000C4E11AC004
S1130740809184008436B0F010928400C150DDECB6
S1130750CD9FD12D1124D695D695D6958D2F0E9457
S1130760FC03DD0F8D2F880F880FD80F8C2F8D1B66
S11307700E940104C111E4CF62E083E40E941803E3
S11307806FCF1F920F920FB60F9211248F93809107
S113079084008F5F809384008F910F900FBE0F9021
S11307A01F90189541E060E084E40E94210141E03B
S11307B061E084E40E94210141E062E084E40E945B
S11307C0210141E063E084E40E942101089541E0B5
S11307D064E084E40E94210141E065E084E40E9435
S11307E0210141E066E084E40E94210141E067E0E8
S11307F084E40E9421010895682F84E40E94270262
S11308000895682F84E40E944F02089583B78F7B74
S113081083BF83B7886083BF80E58CBF83B7816063
S113082083BF83B78D7F83BF83B7846083BF78948E
S113083089B7826089BF0895EE0FFF1F0590F49178
S10B0840E02D0994F894FFCFA8
S1130848202020202020474F2E2E2E2E2E00202020
S11308582020205265616479002020202020205324
S1070868544F500095
S9030000FC
